{
  "contractName": "Crud",
  "abi": [
    {
      "inputs": [],
      "name": "nextId",
      "outputs": [
        {
          "internalType": "uint256",
          "name": "",
          "type": "uint256"
        }
      ],
      "stateMutability": "view",
      "type": "function",
      "constant": true
    },
    {
      "inputs": [
        {
          "internalType": "uint256",
          "name": "",
          "type": "uint256"
        }
      ],
      "name": "users",
      "outputs": [
        {
          "internalType": "uint256",
          "name": "id",
          "type": "uint256"
        },
        {
          "internalType": "string",
          "name": "name",
          "type": "string"
        }
      ],
      "stateMutability": "view",
      "type": "function",
      "constant": true
    },
    {
      "inputs": [
        {
          "internalType": "string",
          "name": "name",
          "type": "string"
        }
      ],
      "name": "create",
      "outputs": [],
      "stateMutability": "nonpayable",
      "type": "function"
    },
    {
      "inputs": [
        {
          "internalType": "uint256",
          "name": "id",
          "type": "uint256"
        }
      ],
      "name": "read",
      "outputs": [
        {
          "internalType": "uint256",
          "name": "",
          "type": "uint256"
        },
        {
          "internalType": "string",
          "name": "",
          "type": "string"
        }
      ],
      "stateMutability": "view",
      "type": "function",
      "constant": true
    },
    {
      "inputs": [
        {
          "internalType": "uint256",
          "name": "id",
          "type": "uint256"
        },
        {
          "internalType": "string",
          "name": "name",
          "type": "string"
        }
      ],
      "name": "update",
      "outputs": [],
      "stateMutability": "nonpayable",
      "type": "function"
    },
    {
      "inputs": [
        {
          "internalType": "uint256",
          "name": "id",
          "type": "uint256"
        }
      ],
      "name": "destroy",
      "outputs": [],
      "stateMutability": "nonpayable",
      "type": "function"
    },
    {
      "inputs": [
        {
          "internalType": "uint256",
          "name": "id",
          "type": "uint256"
        }
      ],
      "name": "find",
      "outputs": [
        {
          "internalType": "uint256",
          "name": "index",
          "type": "uint256"
        }
      ],
      "stateMutability": "view",
      "type": "function",
      "constant": true
    },
    {
      "inputs": [],
      "name": "test",
      "outputs": [
        {
          "internalType": "string",
          "name": "",
          "type": "string"
        }
      ],
      "stateMutability": "pure",
      "type": "function",
      "constant": true
    }
  ],
  "bytecode": "0x60806040526001805534801561001457600080fd5b50610849806100246000396000f3fe608060405234801561001057600080fd5b50600436106100885760003560e01c8063b6a46b3b1161005b578063b6a46b3b146100f4578063ed2e5a9714610107578063f745630f1461011a578063f8a8fd6d1461012d57610088565b8063365b98b21461008d5780633e530e5b146100b757806361b8ce8c146100d75780639d118770146100df575b600080fd5b6100a061009b36600461068f565b610142565b6040516100ae929190610782565b60405180910390f35b6100ca6100c536600461068f565b6101fa565b6040516100ae9190610779565b6100ca610282565b6100f26100ed36600461068f565b610288565b005b6100f2610102366004610654565b6102dc565b6100a061011536600461068f565b61037e565b6100f26101283660046106a7565b61048a565b6101356104dd565b6040516100ae9190610737565b6000818154811061015257600080fd5b600091825260209091206002909102018054600182018054919350906101779061079b565b80601f01602080910402602001604051908101604052809291908181526020018280546101a39061079b565b80156101f05780601f106101c5576101008083540402835291602001916101f0565b820191906000526020600020905b8154815290600101906020018083116101d357829003601f168201915b5050505050905082565b6000805b60005481101561025b57826000828154811061022a57634e487b7160e01b600052603260045260246000fd5b906000526020600020906002020160000154141561024957905061027d565b80610253816107d6565b9150506101fe565b5060405162461bcd60e51b815260040161027490610751565b60405180910390fd5b919050565b60015481565b6000610293826101fa565b9050600081815481106102b657634e487b7160e01b600052603260045260246000fd5b600091825260208220600290910201818155906102d660018301826104fb565b50505050565b6040805180820190915260018054825260208083018481526000805493840181558052835160029093027f290decd9548b62a8d60345a988386fc84ba6bc95484008f6362f93160ef3e563810193845590518051610363937f290decd9548b62a8d60345a988386fc84ba6bc95484008f6362f93160ef3e56490930192919091019061053a565b50506001805491506000610376836107d6565b919050555050565b60006060600061038d846101fa565b9050600081815481106103b057634e487b7160e01b600052603260045260246000fd5b906000526020600020906002020160000154600082815481106103e357634e487b7160e01b600052603260045260246000fd5b90600052602060002090600202016001018080546104009061079b565b80601f016020809104026020016040519081016040528092919081815260200182805461042c9061079b565b80156104795780601f1061044e57610100808354040283529160200191610479565b820191906000526020600020905b81548152906001019060200180831161045c57829003601f168201915b505050505090509250925050915091565b6000610495836101fa565b905081600082815481106104b957634e487b7160e01b600052603260045260246000fd5b906000526020600020906002020160010190805190602001906102d692919061053a565b6040805180820190915260048152631d195cdd60e21b602082015290565b5080546105079061079b565b6000825580601f106105195750610537565b601f01602090049060005260206000209081019061053791906105be565b50565b8280546105469061079b565b90600052602060002090601f01602090048101928261056857600085556105ae565b82601f1061058157805160ff19168380011785556105ae565b828001600101855582156105ae579182015b828111156105ae578251825591602001919060010190610593565b506105ba9291506105be565b5090565b5b808211156105ba57600081556001016105bf565b600082601f8301126105e3578081fd5b813567ffffffffffffffff808211156105fe576105fe6107fd565b604051601f8301601f191681016020018281118282101715610622576106226107fd565b604052828152848301602001861015610639578384fd5b82602086016020830137918201602001929092529392505050565b600060208284031215610665578081fd5b813567ffffffffffffffff81111561067b578182fd5b610687848285016105d3565b949350505050565b6000602082840312156106a0578081fd5b5035919050565b600080604083850312156106b9578081fd5b82359150602083013567ffffffffffffffff8111156106d6578182fd5b6106e2858286016105d3565b9150509250929050565b60008151808452815b81811015610711576020818501810151868301820152016106f5565b818111156107225782602083870101525b50601f01601f19169290920160200192915050565b60006020825261074a60208301846106ec565b9392505050565b6020808252600e908201526d155cd95c881b9bdd08199bdd5b9960921b604082015260600190565b90815260200190565b60008382526040602083015261068760408301846106ec565b6002810460018216806107af57607f821691505b602082108114156107d057634e487b7160e01b600052602260045260246000fd5b50919050565b60006000198214156107f657634e487b7160e01b81526011600452602481fd5b5060010190565b634e487b7160e01b600052604160045260246000fdfea264697066735822122052a93fb17ea1f686e05629bbd95a3685479e51cde08269ecfffe124bd41d03f164736f6c63430008000033",
  "immutableReferences": {},
  "source": "// SPDX-License-Identifier: MIT \r\npragma solidity ^0.8.0;\r\n\r\ncontract Crud {\r\n\r\n    struct User {\r\n        uint id;\r\n        string name;\r\n    }\r\n\r\n    User[] public users;\r\n    uint public nextId = 1;\r\n\r\n    function create(string memory name) public {\r\n        users.push(User(nextId, name));\r\n        nextId++;\r\n    }\r\n    \r\n    function read(uint id) view public returns(uint, string memory) {\r\n        uint index = find(id);\r\n        return(users[index].id, users[index].name);\r\n    }\r\n\r\n    function update(uint id, string memory name) public {\r\n        uint index = find(id);\r\n        users[index].name = name;\r\n    }\r\n\r\n    function destroy(uint id) public {\r\n        uint index = find(id);\r\n        delete users[index];\r\n    }\r\n\r\n    function find(uint id) view public returns(uint index) {\r\n        for (uint i; i < users.length; i++) {\r\n            if(users[i].id == id) {\r\n                return i;\r\n            }\r\n        }\r\n        revert('User not found');\r\n    }\r\n\r\n    function test() pure public returns(string memory) {\r\n        return \"test\";\r\n    }\r\n}",
  "sourcePath": "C:\\Users\\cassi\\Documents\\DApps\\CRUD\\contracts\\Crud.sol",
  "compiler": {
    "name": "solc",
    "version": "0.8.0+commit.c7dfd78e.Emscripten.clang"
  },
  "schemaVersion": "3.4.16",
  "updatedAt": "2023-11-11T21:27:50.524Z",
  "networkType": "ethereum",
  "devdoc": {
    "kind": "dev",
    "methods": {},
    "version": 1
  },
  "userdoc": {
    "kind": "user",
    "methods": {},
    "version": 1
  }
}